:100000000C9463000C948B000C948B000C948B006C
:100010000C948B000C948B000C948B000C948B0034
:100020000C948B000C947F030C948B000C948B002D
:100030000C948B000C948B000C948B000C948B0014
:100040000C9401050C948B000C9477060C948B0097
:100050000C948B000C948B000C948B000C948B00F4
:100060000C948B000C948B000000000024002700EF
:100070002A0000000000250028002B0000000000DE
:1000800023002600290004040404040404040202DA
:100090000202020203030303030301020408102007
:1000A0004080010204081020010204081020000012
:1000B0000007000201000003040600000000000029
:1000C00000002004CC0711241FBECFEFD8E0DEBF14
:1000D000CDBF11E0A0E0B1E0E0EAF1E102C005909F
:1000E0000D92A631B107D9F711E0A6E1B1E001C048
:1000F0001D92A13EB107E1F710E0C6ECD0E004C0CC
:100100002297FE010E94CA08C23CD107C9F70E948B
:10011000FA040C94CE080C940000CF93DF93BC013A
:100120008230910510F462E070E0A091DF01B0919F
:10013000E001ED01E0E0F0E040E050E021C0888126
:1001400099818617970769F48A819B81309719F006
:100150009383828304C09093E0018093DF01FE01CA
:1001600034C06817790738F44115510519F0841720
:10017000950708F4AC01FE018A819B819C01E9018D
:100180002097E9F641155105A9F1CA01861B970B85
:10019000049708F4BA01E0E0F0E02AC08D919C9148
:1001A000119784179507F9F46417750781F412966F
:1001B0008D919C911397309719F09383828304C09B
:1001C0009093E0018093DF01FD0132964CC0CA019B
:1001D000861B970BFD01E80FF91F6193719302973E
:1001E0008D939C9340C0FD01828193819C01D90134
:1001F0001097A1F68091DD019091DE01892B41F4E9
:1002000080910801909109019093DE018093DD01B6
:1002100040910A0150910B014115510541F44DB730
:100220005EB78091060190910701481B590B209100
:10023000DD013091DE01CA01821B930B86179707FF
:1002400080F0AB014E5F5F4F8417950750F0420F6F
:10025000531F5093DE014093DD01F90161937193C7
:1002600002C0E0E0F0E0CF01DF91CF910895CF939D
:10027000DF93009709F450C0EC0122971B821A8289
:10028000A091DF01B091E001109709F140E050E04A
:10029000AC17BD0708F1BB83AA83FE012191319100
:1002A000E20FF31FAE17BF0779F48D919C91119760
:1002B000280F391F2E5F3F4F3983288312968D9167
:1002C0009C9113979B838A834115510571F4D093B8
:1002D000E001C093DF0120C012968D919C9113978D
:1002E000AD01009711F0DC01D3CFFA01D383C283B3
:1002F00021913191E20FF31FCE17DF0769F4888156
:100300009981280F391F2E5F3F4FFA0131832083D7
:100310008A819B8193838283DF91CF910895FB0132
:10032000DC010D900020E9F7119701900D9200205B
:10033000E1F70895FB01DC018D9101908019011016
:10034000D9F3990B0895FB01DC014150504048F06E
:1003500001900D920020C9F701C01D9241505040FC
:10036000E0F70895FC01808191810895DC0120E08F
:1003700030E008C0ED91FC911197E20FF31F10825D
:100380002F5F3F4F14968D919C9115972817390731
:1003900088F30895FC01808191810E949A019C015B
:1003A00080E0232B09F481E008950F931F93CF93EE
:1003B000DF93EC018B01CB0101960E948D008883B5
:1003C00099831D830C831B821A8220E030E007C0D2
:1003D000E881F981E20FF31F10822F5F3F4F8C817C
:1003E0009D8128173907A0F3DF91CF911F910F91BD
:1003F00008950F931F938C01DC0112964D915C912F
:1004000013974F5F5F4F8D919C910E94A301D8017C
:10041000ED91FC91119712968D919C911397E80F95
:10042000F91F10821F910F9108950F931F93CF937F
:10043000DF93EC018B016115710511F400E011E00F
:10044000D8010D900020E9F71197A01BB10BBB83D9
:10045000AA838C819D818A179B0768F4BD83AC8336
:10046000888199810E9437018A819B8101960E942F
:100470008D008883998320E030E007C0E881F9810E
:10048000E20FF31F10822F5F3F4F8C819D81281751
:100490003907A0F3CE01B8010E94F901CE01DF9126
:1004A000CF911F910F9108950F931F93CF93DF93D7
:1004B000EC018B018617970781F1FB0122813381C3
:1004C0008C819D818217930770F4888199810E94A5
:1004D0003701F801828193819D838C8301960E946C
:1004E0008D0088839983F801828193819B838A831D
:1004F00020E030E007C0E881F981E20FF31F1082AD
:100500002F5F3F4F8C819D8128173907A0F3F80199
:1005100060817181CE010E94F901CE01DF91CF91FE
:100520001F910F910895EF92FF920F931F93CF9316
:10053000DF93EC017B016115710521F430E0E32EBE
:1005400031E0F32ED7010D900020E9F71197AE1995
:10055000BF098A819B81A80FB91FBB83AA838C81A5
:100560009D818A179B0788F408811981BD83AC831C
:10057000CD0101960E948D0088839983CE01B80138
:100580000E94F901C8010E94370188819981B70151
:100590000E948F01E881F9818A819B81E80FF91F10
:1005A0001082CE01DF91CF911F910F91FF90EF90BC
:1005B00008950E94930208950F931F938B019C014D
:1005C000809170008E7F809370008091B0008C7F4E
:1005D0008093B0008091B100877F8093B1008091BB
:1005E000B6008F7D8093B600809170008D7F8093E0
:1005F00070008091B10084608093B1008091B1005F
:100600008C7F8093B10086E090E0909322018093EC
:100610002101011511052105310569F481E090E002
:10062000A0E0B0E08093160190931701A093180109
:10063000B093190108C0009316011093170120937D
:1006400018013093190150931B0140931A011F9117
:100650000F91089510921C0110921D0110921E011D
:1006600010921F011092200180912101909122018E
:100670008093B200E0E7F0E080818160808308959C
:1006800080911C0190911D01A0911E01B0911F014C
:100690000196A11DB11D80931C0190931D01A09393
:1006A0001E01B0931F0120911C0130911D0140914A
:1006B0001E0150911F018091160190911701A09188
:1006C0001801B0911901281739074A075B07B0F0E4
:1006D00080912001882391F481E080932001109281
:1006E0001C0110921D0110921E0110921F01E09139
:1006F0001A01F0911B0109951092200108951F9293
:100700000F920FB60F9211242F933F934F935F9345
:100710006F937F938F939F93AF93BF93EF93FF93C9
:1007200080912101909122018093B2000E944003A8
:10073000FF91EF91BF91AF919F918F917F916F91B9
:100740005F914F913F912F910F900FBE0F901F908F
:100750001895FC01608341831282138214821582F2
:1007600008950F931F938C019A01AB01FC01228322
:1007700033834483558360E472E48FE090E00E9409
:100780009908F80137832683818161E00E94DB05A7
:10079000F801868197810E9473051F910F9108953A
:1007A000CF92DF92EF92FF920F931F93CF93DF933D
:1007B0007C01FC01C681D781F70180810E94280657
:1007C000892BD1F7F70180810E942806892B19F027
:1007D0000FEF1FEF2BC09DEFC92E9FEFD92ECC0E30
:1007E000DD1EC60162E070E00E946408CB01039741
:1007F0000E94730500E010E0C0E0D0E0C6010E9456
:100800007305F70180810E9428060C2E02C0880F14
:10081000991F0A94E2F7082B192B2196C830D105AD
:1008200069F7F701868197810E947305C801DF91FE
:10083000CF911F910F91FF90EF90DF90CF9008958F
:1008400081E391E06AE070E00E94D50187E391E0E6
:100850006AE070E00E94D501089587E391E065E0C9
:1008600071E00E9415028AEC91E00E94AD070895A4
:100870000F931F93DF93CF93CDB7DEB728970FB6B3
:10088000F894DEBF0FBECDBF8E010F5F1F4FC801B2
:1008900068E049E00E94A903C80140E659E060E031
:1008A00070E00E94B10385E060E00E94DB05C801B2
:1008B0000E94D00390932401809323010A9709F0AA
:1008C0005DC01092300110922F011BC0C8010E9420
:1008D000D0039C0190932401809323018A309105D9
:1008E000B1F08D30910599F080912F0190913001F8
:1008F000FC01EB5DFE4F20830196909330018093C5
:100900002F0180912F01909130010A97FCF2809184
:100910002F01909130010A9739F581E391E00E940F
:10092000B60181E391E065E271E00E94D90287E3BC
:1009300091E00E94B201BC0181E391E00E94CA01F2
:10094000882391F48AEC91E065E271E00E943D0811
:1009500085E061E00E94DB0587E391E061E371E0FF
:100960000E9454020E942A031092300110922F011B
:1009700068EE73E080E090E00E94490528960FB68B
:10098000F894DEBF0FBECDBFCF91DF911F910F91C5
:1009900008950F931F938AEC91E040E855E260E0E0
:1009A00070E00E94B40682E061E00E94BB0582E034
:1009B00060E00E94DB0585E061E00E94BB0585E008
:1009C00060E00E94DB0505E011E081E391E0B80101
:1009D0000E94150287E391E0B8010E94150260E1D0
:1009E00077E280E090E04DE254E00E94DC021F914B
:1009F0000F9108950E9481050E94C9040E94380445
:100A0000FDCF1F920F920FB60F9211242F933F9399
:100A10008F939F93AF93BF93809141019091420137
:100A2000A0914301B0914401309145010196A11D6F
:100A3000B11D232F2D5F2D3720F02D570196A11DBD
:100A4000B11D209345018093410190934201A093F1
:100A50004301B093440180913D0190913E01A091EA
:100A60003F01B09140010196A11DB11D80933D0150
:100A700090933E01A0933F01B0934001BF91AF918D
:100A80009F918F913F912F910F900FBE0F901F90CC
:100A90001895EF92FF920F931F937B018C018FB7F4
:100AA000F89440914101509142016091430170914D
:100AB00044018FBF2FB7F89480914101909142017A
:100AC000A0914301B09144012FBF841B950BA60B4D
:100AD000B70BE816F9060A071B0760F71F910F917D
:100AE000FF90EF900895019759F0FC01EE0FFF1F62
:100AF000EE0FFF1F32978FB7F8943197F1F78FBF42
:100B00000895789484B5826084BD84B5816084BD85
:100B100085B5826085BD85B5816085BDEEE6F0E076
:100B2000808181608083E1E8F0E080818260808361
:100B3000808181608083E0E8F0E080818160808353
:100B4000E1EBF0E0808184608083E0EBF0E0808185
:100B500081608083EAE7F0E0808184608083808127
:100B600082608083808181608083808180688083CF
:100B70001092C1000895282F30E0C90186569F4F7A
:100B8000FC0194912A573F4FF9018491882391F0F9
:100B9000E82FF0E0EE0FFF1FE859FF4FA591B49149
:100BA000662329F48C91909589238C9308958C91D8
:100BB000892B8C930895482F50E0CA0182559F4F8E
:100BC000FC012491CA0186569F4FFC0194914A571B
:100BD0005F4FFA0134913323D1F1222331F12330D5
:100BE00021F4809180008F7705C0243031F480910A
:100BF00080008F7D8093800018C0213019F484B567
:100C00008F7704C0223021F484B58F7D84BD0DC060
:100C1000263021F48091B0008F7705C0273029F469
:100C20008091B0008F7D8093B000E32FF0E0EE0F55
:100C3000FF1FEE58FF4FA591B491662329F48C91C4
:100C4000909589238C9308958C91892B8C9308958A
:100C5000682F70E0CB0182559F4FFC012491CB019E
:100C600086569F4FFC0144916A577F4FFB01949138
:100C7000992319F420E030E038C0222331F12330E9
:100C800021F4809180008F7705C0243031F4809169
:100C900080008F7D8093800018C0213019F484B5C6
:100CA0008F7704C0223021F484B58F7D84BD0DC0C0
:100CB000263021F48091B0008F7705C0273029F4C9
:100CC0008091B0008F7D8093B000892F90E0880FD5
:100CD000991F84589F4FFC01A591B4918C9120E0FD
:100CE00030E0842311F021E030E0C90108951F9223
:100CF0000F920FB60F9211242F933F934F935F9350
:100D00006F937F938F939F93AF93BF93EF93FF93D3
:100D10004091C600E091C601F091C701CF01019654
:100D200060E870E00E9464089C018091C801909185
:100D3000C9012817390739F0EA5BFE4F4083309329
:100D4000C7012093C601FF91EF91BF91AF919F9191
:100D50008F917F916F915F914F913F912F910F9064
:100D60000FBE0F901F9018955F926F927F928F9297
:100D70009F92AF92BF92CF92DF92EF92FF920F932A
:100D80001F93CF93DF93EC013A014B01413482E48E
:100D900058078FE0680780E078070CF07FC060E8B4
:100DA00074E88EE190E0A40193010E94990821501B
:100DB000304040405040CA01B90122E030E040E0FC
:100DC00050E00E94990859016A01A60195012095F9
:100DD00030954095509594E0220F331F441F551FC6
:100DE0009A95D1F760E074E284EF90E00E94990850
:100DF000CA01B9012FEF30E040E050E00E94450801
:100E0000A40193010E949908C90181509F4F1816AF
:100E100019061CF4522E5A9403C055245394521AA6
:100E200060E079E08DE390E0A40193010E949908CD
:100E30002150304040405040CA01B90122E030E02A
:100E400040E050E00E9499082095309540955095DB
:100E500083E0220F331F441F551F8A95D1F760E0AE
:100E600074E284EF90E00E949908CA01B9012FEF63
:100E700030E040E050E00E944508A40193010E9448
:100E80009908C90181509F4F181619061CF4822F2A
:100E9000815002C081E0821B851500F5E885F98547
:100EA00081E090E00A8802C0880F991F0A94E2F757
:100EB000808360E079E08DE390E0A40193010E94DB
:100EC00099082150304040405040CA01B90122E009
:100ED00030E040E050E00E94990804C0E885F985C0
:100EE00010829501EC81FD813083EE81FF812083AA
:100EF000EA85FB85208141E050E0CA010E8402C0F2
:100F0000880F991F0A94E2F7282B2083EA85FB8536
:100F10002081CA010F8402C0880F991F0A94E2F74A
:100F2000282B2083EA85FB858081088802C0440F36
:100F3000551F0A94E2F7842B8083DF91CF911F9194
:100F40000F91FF90EF90DF90CF90BF90AF909F9068
:100F50008F907F906F905F900895DC011296ED91D5
:100F6000FC911397EE57FF4F80819181929382936A
:100F70000895FC01A085B18521898C9190E0022E15
:100F800002C0959587950A94E2F780FFF6CF048416
:100F9000F585E02D6083089580E191E09093CB0189
:100FA0008093CA0186E491E09093CD018093CC01B7
:100FB00085EC90E09093CF018093CE0184EC90E09B
:100FC0009093D1018093D00180EC90E09093D30175
:100FD0008093D20181EC90E09093D5018093D4016D
:100FE00086EC90E09093D7018093D60184E08093C3
:100FF000D80183E08093D90187E08093DA0185E00E
:101000008093DB0181E08093DC0108950F931F93AF
:10101000CF93DF938C01EB0109C02196D801ED91AC
:10102000FC910190F081E02DC8010995688166234B
:10103000A1F7DF91CF911F910F910895EF92FF9249
:101040000F931F93CF93DF938C017B01EA010CC0B8
:10105000D7016D917D01D801ED91FC910190F08156
:10106000E02DC80109952197209791F7DF91CF9145
:101070001F910F91FF90EF900895DC01ED91FC918D
:101080000280F381E02D09950895629FD001739F3E
:10109000F001829FE00DF11D649FE00DF11D929F14
:1010A000F00D839FF00D749FF00D659FF00D992753
:1010B000729FB00DE11DF91F639FB00DE11DF91F77
:1010C000BD01CF011124089597FB092E07260AD0F0
:1010D00077FD04D049D006D000201AF470956195B0
:1010E0007F4F0895F6F7909581959F4F0895A1E25F
:1010F0001A2EAA1BBB1BFD010DC0AA1FBB1FEE1F92
:10110000FF1FA217B307E407F50720F0A21BB30BDC
:10111000E40BF50B661F771F881F991F1A9469F758
:1011200060957095809590959B01AC01BD01CF01B4
:10113000089597FB092E05260ED057FD04D0D7DF62
:101140000AD0001C38F450954095309521953F4FBA
:101150004F4F5F4F0895F6F7909580957095619584
:101160007F4F8F4F9F4F0895AA1BBB1B51E107C0B4
:10117000AA1FBB1FA617B70710F0A61BB70B881F27
:10118000991F5A95A9F780959095BC01CD010895B6
:10119000EE0FFF1F0590F491E02D0994F894FFCF16
:1011A00000302E3400002000E101000000000000AB
:0611B000B90706081E0845
:00000001FF
