:100000000C9462000C948A000C948A000C948A0070
:100010000C948A000C948A000C948A000C948A0038
:100020000C948A000C948A000C948A000C948A0028
:100030000C948A000C948A000C948A000C948A0018
:100040000C94AA010C948A000C9489030C948A00E5
:100050000C948A000C948A000C948A000C948A00F8
:100060000C948A000C948A000000000024002700F1
:100070002A0000000000250028002B0000000000DE
:1000800023002600290004040404040404040202DA
:100090000202020203030303030301020408102007
:1000A0004080010204081020010204081020000012
:1000B0000007000201000003040600000000000029
:1000C00000000E0511241FBECFEFD8E0DEBFCDBF6C
:1000D00011E0A0E0B1E0E0EEFDE002C005900D927D
:1000E000AC30B107D9F711E0ACE0B1E001C01D922E
:1000F000A13CB107E1F710E0C4ECD0E004C02297C6
:10010000FE010E94EA06C23CD107C9F70E94A30182
:100110000C94EE060C940000CF93DF9380E00E94D5
:100120005602BC0190930D0180930C018EEA91E080
:100130000E9455068EEA91E00E94BF04882309F4CC
:10014000A6C08EEA91E00E94D30480931D01833201
:1001500009F09DC00DC08EEA91E00E94D304FE011B
:10016000EC5EFE4F80832196D0931C01C0931B014F
:10017000C0911B01D0911C01C630D10564F3909150
:100180001501892F80538A3028F4292F30E020531D
:10019000304008C0892F8154863020F4292F30E068
:1001A0002753304090911401892F80538A3020F4D6
:1001B000892F90E0C09707C0892F8154863018F4AA
:1001C000892F90E0C79754E0880F991F5A95E1F75F
:1001D000820F80931E0190911701892F80538A30DE
:1001E00028F4292F30E02053304008C0892F815453
:1001F000863020F4292F30E02753304090911601AB
:10020000892F80538A3020F4892F90E0C09707C04F
:10021000892F8154863018F4892F90E0C79744E0E5
:10022000880F991F4A95E1F7820F80931F019091E3
:100230001901892F80538A3028F4292F30E0205368
:10024000304008C0892F8154863020F4292F30E0B7
:100250002753304090911801892F80538A3020F421
:10026000892F90E0C09707C0892F8154863018F4F9
:10027000892F90E0C79734E0880F991F3A95E1F7EE
:10028000820F8093200110921C0110921B018CE0C0
:100290000E943A039C0190930F0180930E018130DC
:1002A000910589F48091100190911101892B59F4E5
:1002B0008091120190911301A901481B590B509391
:1002C000130140931201309311012093100180918A
:1002D000120190911301019789F460911E0189E048
:1002E00070E00E94740260911F018AE070E00E9439
:1002F0007402609120018BE070E00DC089E060E045
:1003000070E00E9474028AE060E070E00E94740273
:100310008BE060E070E00E94740264E670E080E0D0
:1003200090E00E94F201DF91CF9108958EEA91E072
:1003300040E855E260E070E00E94C6038CE060E0B7
:100340000E94CD0208950E941C020E9496010E9404
:100350008C00FDCF1F920F920FB60F9211242F9396
:100360003F938F939F93AF93BF938091250190917B
:100370002601A0912701B091280130912901019611
:10038000A11DB11D232F2D5F2D3720F02D57019674
:10039000A11DB11D20932901809325019093260171
:1003A000A0932701B093280180912101909122010F
:1003B000A0912301B09124010196A11DB11D80934C
:1003C000210190932201A0932301B0932401BF91B6
:1003D000AF919F918F913F912F910F900FBE0F90F2
:1003E0001F901895EF92FF920F931F937B018C0142
:1003F0008FB7F89440912501509126016091270113
:10040000709128018FBF2FB7F894809125019091AA
:100410002601A0912701B09128012FBF841B950BC5
:10042000A60BB70BE816F9060A071B0760F71F9122
:100430000F91FF90EF900895789484B5826084BD09
:1004400084B5816084BD85B5826085BD85B58160D8
:1004500085BDEEE6F0E0808181608083E1E8F0E038
:10046000808182608083808181608083E0E8F0E029
:10047000808181608083E1EBF0E080818460808313
:10048000E0EBF0E0808181608083EAE7F0E080814A
:1004900084608083808182608083808181608083AA
:1004A0008081806880831092C10008958F70909140
:1004B00000019295990F990F907C982B90937C0056
:1004C00080917A00806480937A0080917A0086FD22
:1004D000FCCF2091780040917900942F80E030E0AB
:1004E000282B392BC90108951F93CF93DF93182F21
:1004F000EB0161E00E94CD02E12FF0E0E255FF4FF9
:100500008491833051F480918000806880938000D2
:10051000D0938900C09388003CC0843051F480910E
:100520008000806280938000D0938B00C0938A000B
:1005300030C0813039F4209729F184B5806884BDBA
:10054000C7BD27C0823039F42097E1F084B58062BE
:1005500084BDC8BD1EC0863041F48091B000806863
:100560008093B000C093B30014C0873041F48091F1
:10057000B00080628093B000C093B4000AC0C0385D
:10058000D1051CF4812F60E002C0812F61E00E9440
:10059000ED02DF91CF911F910895282F30E0C9011E
:1005A00086569F4FFC0194912A573F4FF901849141
:1005B000882391F0E82FF0E0EE0FFF1FE859FF4F7E
:1005C000A591B491662329F48C91909589238C93FD
:1005D00008958C91892B8C930895482F50E0CA017F
:1005E00082559F4FFC012491CA0186569F4FFC0102
:1005F00094914A575F4FFA0134913323D1F122236A
:1006000031F1233021F4809180008F7705C02430B0
:1006100031F4809180008F7D8093800018C021305C
:1006200019F484B58F7704C0223021F484B58F7D0E
:1006300084BD0DC0263021F48091B0008F7705C0B5
:10064000273029F48091B0008F7D8093B000E32F94
:10065000F0E0EE0FFF1FEE58FF4FA591B491662317
:1006600029F48C91909589238C9308958C91892BF2
:100670008C930895682F70E0CB0182559F4FFC0149
:100680002491CB0186569F4FFC0144916A577F4FBE
:10069000FB019491992319F420E030E038C0222323
:1006A00031F1233021F4809180008F7705C0243010
:1006B00031F4809180008F7D8093800018C02130BC
:1006C00019F484B58F7704C0223021F484B58F7D6E
:1006D00084BD0DC0263021F48091B0008F7705C015
:1006E000273029F48091B0008F7D8093B000892F4E
:1006F00090E0880F991F84589F4FFC01A591B491F9
:100700008C9120E030E0842311F021E030E0C90139
:1007100008951F920F920FB60F9211242F933F93BB
:100720004F935F936F937F938F939F93AF93BF93F9
:10073000EF93FF934091C600E091AA01F091AB01C5
:10074000CF01019660E870E00E9484069C018091D0
:10075000AC019091AD012817390739F0E65DFE4FE5
:1007600040833093AB012093AA01FF91EF91BF9199
:10077000AF919F918F917F916F915F914F913F9139
:100780002F910F900FBE0F901F9018955F926F9250
:100790007F928F929F92AF92BF92CF92DF92EF9211
:1007A000FF920F931F93CF93DF93EC013A014B011C
:1007B000413482E458078FE0680780E078070CF046
:1007C0007FC060E874E88EE190E0A40193010E948C
:1007D000B9062150304040405040CA01B90122E0E2
:1007E00030E040E050E00E94B90659016A01A601DC
:1007F0009501209530954095509594E0220F331F38
:10080000441F551F9A95D1F760E074E284EF90E0A1
:100810000E94B906CA01B9012FEF30E040E050E074
:100820000E946506A40193010E94B906C901815086
:100830009F4F181619061CF4522E5A9403C05524C3
:100840005394521A60E079E08DE390E0A4019301A3
:100850000E94B9062150304040405040CA01B901C1
:1008600022E030E040E050E00E94B906209530954B
:100870004095509583E0220F331F441F551F8A95E2
:10088000D1F760E074E284EF90E00E94B906CA01FB
:10089000B9012FEF30E040E050E00E946506A4016E
:1008A00093010E94B906C90181509F4F181619067D
:1008B0001CF4822F815002C081E0821B851500F557
:1008C000E885F98581E090E00A8802C0880F991FC9
:1008D0000A94E2F7808360E079E08DE390E0A40180
:1008E00093010E94B9062150304040405040CA0157
:1008F000B90122E030E040E050E00E94B90604C0B7
:10090000E885F98510829501EC81FD813083EE81C7
:10091000FF812083EA85FB85208141E050E0CA0108
:100920000E8402C0880F991F0A94E2F7282B2083B7
:10093000EA85FB852081CA010F8402C0880F991FB8
:100940000A94E2F7282B2083EA85FB8580810888BA
:1009500002C0440F551F0A94E2F7842B8083DF9175
:10096000CF911F910F91FF90EF90DF90CF90BF90AC
:10097000AF909F908F907F906F905F900895DC0173
:100980001296ED91FC911397E058FF4F8191919150
:1009900080589F4F20813181821B930B60E870E06B
:1009A0000E9484060895CF93DF93DC011296ED91A7
:1009B000FC911397EF01CE57DF4F48815981E058E2
:1009C000FF4F80819181E058F0408417950719F41A
:1009D0002FEF3FEF0CC0E40FF51F2081CA010196F5
:1009E00060E870E00E9484069983888330E0C90142
:1009F000DF91CF910895FC01A085B18521898C916B
:100A000090E0022E02C0959587950A94E2F780FF48
:100A1000F6CF0484F585E02D6083089585E091E0AC
:100A20009093AF018093AE018AE291E09093B1017F
:100A30008093B00185EC90E09093B3018093B20174
:100A400084EC90E09093B5018093B40180EC90E049
:100A50009093B7018093B60181EC90E09093B90137
:100A60008093B80186EC90E09093BB018093BA012B
:100A700084E08093BC0183E08093BD0187E0809394
:100A8000BE0185E08093BF0181E08093C00108959D
:100A90000F931F93CF93DF938C01EB0109C0219635
:100AA000D801ED91FC910190F081E02DC8010995EC
:100AB00068816623A1F7DF91CF911F910F9108956F
:100AC000EF92FF920F931F93CF93DF938C017B01E3
:100AD000EA010CC0D7016D917D01D801ED91FC9127
:100AE0000190F081E02DC80109952197209791F799
:100AF000DF91CF911F910F91FF90EF9008950F9389
:100B00001F938C01DC01ED91FC910190F081E02DAF
:100B10006DE00995D801ED91FC910190F081E02DF7
:100B2000C8016AE009951F910F9108952F923F9295
:100B30004F925F926F927F928F929F92AF92BF92ED
:100B4000CF92DF92EF92FF920F931F93DF93CF9399
:100B5000CDB7DEB7A0970FB6F894DEBF0FBECDBFFE
:100B60001C016A017B01411551056105710549F4BC
:100B7000DC01ED91FC910190F081E02D60E309959D
:100B800054C0882499245401422E55246624772485
:100B900001E010E00C0F1D1F080D191DC701B60163
:100BA000A30192010E949706F80160830894811CBA
:100BB000911CA11CB11CC701B601A30192010E94A6
:100BC0009706C901DA016C017D01C114D104E10469
:100BD000F104F1F681E0E82EF12CEC0EFD1EE80C9C
:100BE000F91C3E010894611C711CD501C4010197D8
:100BF000A109B1096C01C818D90814C0F601EE0D9D
:100C0000FF1D60816A3010F4605D01C0695CD10134
:100C1000ED91FC910190F081E02DC10109950894BE
:100C2000E108F1086E147F0449F7A0960FB6F89416
:100C3000DEBF0FBECDBFCF91DF911F910F91FF900F
:100C4000EF90DF90CF90BF90AF909F908F907F906C
:100C50006F905F904F903F902F900895EF92FF928A
:100C60000F931F93CF93DF93EC017A018B0177FFF2
:100C70000FC0E881F9810190F081E02D6DE20995C6
:100C800010950095F094E094E11CF11C011D111DDC
:100C9000CE01B801A7012AE00E949605DF91CF910D
:100CA0001F910F91FF90EF9008950F931F938C0168
:100CB000AB01662757FD6095762F0E942E06C8016E
:100CC0000E947F051F910F910895629FD001739F2D
:100CD000F001829FE00DF11D649FE00DF11D929FD8
:100CE000F00D839FF00D749FF00D659FF00D992717
:100CF000729FB00DE11DF91F639FB00DE11DF91F3B
:100D0000BD01CF011124089597FB092E07260AD0B3
:100D100077FD04D049D006D000201AF47095619573
:100D20007F4F0895F6F7909581959F4F0895A1E222
:100D30001A2EAA1BBB1BFD010DC0AA1FBB1FEE1F55
:100D4000FF1FA217B307E407F50720F0A21BB30BA0
:100D5000E40BF50B661F771F881F991F1A9469F71C
:100D600060957095809590959B01AC01BD01CF0178
:100D7000089597FB092E05260ED057FD04D0D7DF26
:100D80000AD0001C38F450954095309521953F4F7E
:100D90004F4F5F4F0895F6F7909580957095619548
:100DA0007F4F8F4F9F4F0895AA1BBB1B51E107C078
:100DB000AA1FBB1FA617B70710F0A61BB70B881FEB
:100DC000991F5A95A9F780959095BC01CD0108957A
:100DD000EE0FFF1F0590F491E02D0994F894FFCFDA
:0C0DE0000100000000FB04480560050055
:00000001FF
