:100000000C9462000C948A000C948A000C948A0070
:100010000C948A000C948A000C948A000C948A0038
:100020000C948A000C948A000C948A000C948A0028
:100030000C948A000C948A000C948A000C948A0018
:100040000C9463010C948A000C947C020C948A003A
:100050000C948A000C948A000C948A000C948A00F8
:100060000C948A000C948A000000000024002700F1
:100070002A0000000000250028002B0000000000DE
:1000800023002600290004040404040404040202DA
:100090000202020203030303030301020408102007
:1000A0004080010204081020010204081020000012
:1000B0000007000201000003040600000000000029
:1000C0000000010411241FBECFEFD8E0DEBFCDBF7A
:1000D00011E0A0E0B1E0EAEFF9E002C005900D9276
:1000E000A832B107D9F711E0A8E2B1E001C01D9232
:1000F000A23DB107E1F710E0C4ECD0E004C02297C4
:10010000FE010E94F704C23CD107C9F70E945C01BE
:100110000C94FB040C940000FB01DC018D91019018
:1001200080190110D9F3990B0895109229011092AA
:10013000280110923101109230012AC08FEB91E01A
:100140000E94B203882321F18FEB91E00E94C60345
:100150009C0190932901809328018A30910519F020
:100160008D30910541F4E0913001F0913101E65D6F
:10017000FE4F108216C08091300190913101FC0138
:10018000E65DFE4F2083019690933101809330010C
:1001900080912801909129018A30910511F00D97E5
:1001A00069F68091300190913101059709F054C0B2
:1001B0008AE291E060E071E00E948C00009719F4FF
:1001C00084E060E024C08AE291E066E071E00E9491
:1001D0008C00009719F484E061E00AC08AE291E0A3
:1001E0006CE071E00E948C00009739F484E060E0DC
:1001F0000E942F0282E060E00EC08AE291E062E19C
:1002000071E00E948C00009779F484E061E00E9424
:100210002F0282E061E00E942F0285E060E00E94F0
:100220002F0283E060E016C08AE291E068E171E0AD
:100230000E948C00009781F484E060E00E942F020D
:1002400082E060E00E942F0285E061E00E942F02C0
:1002500083E061E00E942F0264EF71E080E090E0B3
:100260000E94AB0108958FEB91E040E855E260E019
:1002700070E00E94B90284E061E00E940F0282E017
:1002800061E00E940F0285E061E00E940F0283E0BE
:1002900061E00E940F0284E060E00E942F0282E091
:1002A00060E00E942F0285E060E00E942F0283E060
:1002B00060E00E942F0208950E94D5010E94330140
:1002C0000E949500FDCF1F920F920FB60F9211243E
:1002D0002F933F938F939F93AF93BF93809136015A
:1002E00090913701A0913801B091390130913A01D4
:1002F0000196A11DB11D232F2D5F2D3720F02D5705
:100300000196A11DB11D20933A018093360190936F
:100310003701A0933801B093390180913201909157
:100320003301A0913401B09135010196A11DB11D99
:100330008093320190933301A0933401B09335013F
:10034000BF91AF919F918F913F912F910F900FBED1
:100350000F901F901895EF92FF920F931F937B01C0
:100360008C018FB7F894409136015091370160911C
:100370003801709139018FBF2FB7F8948091360101
:1003800090913701A0913801B09139012FBF841BA2
:10039000950BA60BB70BE816F9060A071B0760F7C3
:1003A0001F910F91FF90EF900895789484B582602B
:1003B00084BD84B5816084BD85B5826085BD85B509
:1003C000816085BDEEE6F0E0808181608083E1E8B8
:1003D000F0E0808182608083808181608083E0E8BA
:1003E000F0E0808181608083E1EBF0E080818460D7
:1003F0008083E0EBF0E0808181608083EAE7F0E0D9
:10040000808184608083808182608083808181603C
:1004100080838081806880831092C1000895282F96
:1004200030E0C90186569F4FFC0194912A573F4FF7
:10043000F9018491882391F0E82FF0E0EE0FFF1F7F
:10044000E859FF4FA591B491662329F48C919095BA
:1004500089238C9308958C91892B8C930895482F30
:1004600050E0CA0182559F4FFC012491CA01865673
:100470009F4FFC0194914A575F4FFA013491332307
:10048000D1F1222331F1233021F4809180008F7744
:1004900005C0243031F4809180008F7D80938000EE
:1004A00018C0213019F484B58F7704C0223021F4AC
:1004B00084B58F7D84BD0DC0263021F48091B000BD
:1004C0008F7705C0273029F48091B0008F7D80930D
:1004D000B000E32FF0E0EE0FFF1FEE58FF4FA591A5
:1004E000B491662329F48C91909589238C93089577
:1004F0008C91892B8C9308951F920F920FB60F92B7
:1005000011242F933F934F935F936F937F938F9318
:100510009F93AF93BF93EF93FF934091C600E091F9
:10052000BB01F091BC01CF01019660E870E00E9430
:1005300091049C018091BD019091BE01281739075B
:1005400039F0E55CFE4F40833093BC012093BB0142
:10055000FF91EF91BF91AF919F918F917F916F919B
:100560005F914F913F912F910F900FBE0F901F9071
:1005700018955F926F927F928F929F92AF92BF92E7
:10058000CF92DF92EF92FF920F931F93CF93DF935F
:10059000EC013A014B01413482E458078FE06807CF
:1005A00080E078070CF07FC060E874E88EE190E0AE
:1005B000A40193010E94C6042150304040405040A5
:1005C000CA01B90122E030E040E050E00E94C604D8
:1005D00059016A01A60195012095309540955095E5
:1005E00094E0220F331F441F551F9A95D1F760E006
:1005F00074E284EF90E00E94C604CA01B9012FEFB3
:1006000030E040E050E00E947204A40193010E9497
:10061000C604C90181509F4F181619061CF4522EAA
:100620005A9403C055245394521A60E079E08DE344
:1006300090E0A40193010E94C60421503040404044
:100640005040CA01B90122E030E040E050E00E9491
:10065000C604209530954095509583E0220F331FB6
:10066000441F551F8A95D1F760E074E284EF90E053
:100670000E94C604CA01B9012FEF30E040E050E00B
:100680000E947204A40193010E94C604C901815012
:100690009F4F181619061CF4822F815002C081E06A
:1006A000821B851500F5E885F98581E090E00A88D0
:1006B00002C0880F991F0A94E2F7808360E079E016
:1006C0008DE390E0A40193010E94C60421503040C4
:1006D00040405040CA01B90122E030E040E050E023
:1006E0000E94C60404C0E885F98510829501EC815A
:1006F000FD813083EE81FF812083EA85FB852081A7
:1007000041E050E0CA010E8402C0880F991F0A948C
:10071000E2F7282B2083EA85FB852081CA010F841C
:1007200002C0880F991F0A94E2F7282B2083EA85DC
:10073000FB858081088802C0440F551F0A94E2F7A8
:10074000842B8083DF91CF911F910F91FF90EF90C9
:10075000DF90CF90BF90AF909F908F907F906F90E1
:100760005F900895DC011296ED91FC911397E0588B
:10077000FF4F8191919180589F4F20813181821B41
:10078000930B60E870E00E9491040895CF93DF938B
:10079000DC011296ED91FC911397EF01CE57DF4FDC
:1007A00048815981E058FF4F80819181E058F040A5
:1007B0008417950719F42FEF3FEF0CC0E40FF51FD6
:1007C0002081CA01019660E870E00E94910499833B
:1007D000888330E0C901DF91CF910895FC01A085A5
:1007E000B18521898C9190E0022E02C09595879564
:1007F0000A94E2F780FFF6CF0484F585E02D60834C
:10080000089582E291E09093C0018093BF018BE351
:1008100091E09093C2018093C10185EC90E09093A8
:10082000C4018093C30184EC90E09093C60180934F
:10083000C50180EC90E09093C8018093C70181ECE2
:1008400090E09093CA018093C90186EC90E0909368
:10085000CC018093CB0184E08093CD0183E0809331
:10086000CE0187E08093CF0185E08093D00181E0C5
:100870008093D10108950F931F93CF93DF938C0141
:10088000EB0109C02196D801ED91FC910190F08116
:10089000E02DC801099568816623A1F7DF91CF910A
:1008A0001F910F910895EF92FF920F931F93CF9393
:1008B000DF938C017B01EA010CC0D7016D917D01B2
:1008C000D801ED91FC910190F081E02DC8010995CE
:1008D0002197209791F7DF91CF911F910F91FF9072
:1008E000EF900895629FD001739FF001829FE00D09
:1008F000F11D649FE00DF11D929FF00D839FF00D9F
:10090000749FF00D659FF00D9927729FB00DE11D4A
:10091000F91F639FB00DE11DF91FBD01CF01112427
:10092000089597FB092E07260AD077FD04D049D0F9
:1009300006D000201AF4709561957F4F0895F6F760
:10094000909581959F4F0895A1E21A2EAA1BBB1B7B
:10095000FD010DC0AA1FBB1FEE1FFF1FA217B3078B
:10096000E407F50720F0A21BB30BE40BF50B661FA1
:10097000771F881F991F1A9469F760957095809565
:1009800090959B01AC01BD01CF01089597FB092E05
:1009900005260ED057FD04D0D7DF0AD0001C38F44E
:1009A00050954095309521953F4F4F4F5F4F08959B
:1009B000F6F790958095709561957F4F8F4F9F4F7B
:1009C0000895AA1BBB1B51E107C0AA1FBB1FA61796
:1009D000B70710F0A61BB70B881F991F5A95A9F7E8
:1009E00080959095BC01CD010895EE0FFF1F0590F5
:0A09F000F491E02D0994F894FFCF74
:1009FA005249474854004C4546542A0053544F50D4
:100A0A002A00464F525744004241434B2A000000F5
:080A1A000000EE033B0453044D
:00000001FF
